:100000000040002011060000B1050000B905000005
:1000100000000000000000000000000000000000E0
:10002000000000000000000000000000B10500001A
:100030000000000000000000B1050000B105000054
:10004000B1050000B1050000B1050000B1050000D8
:1000500015010000B1050000B1050000B105000068
:10006000B1050000B1050000B1050000B1050000B8
:10007000B1050000B1050000B1050000B1050000A8
:10008000B1050000B1050000B1050000B105000098
:10009000B1050000B1050000B1050000B105000088
:1000A000B1050000B1050000B1050000B105000078
:1000B00080B500AF134A14480023022100F0B8F8BD
:1000C000114B01220221180000F046F80F4B1800D6
:1000D00000F025F80C4B00220221180000F03CF83B
:1000E0000A4B180000F01BF8094B1B685A1C084B00
:1000F0001A60074B1B68054A9342E1D1044B00226A
:100100001A60DDE7D00500000002044060EA00004C
:100110007C00002080B500AFC046BD4680BD80B5E4
:1001200084B000AF78600023FB6002E0FB6801331D
:10013000FB607B68FA689A42F8D30023BB6002E058
:10014000BB680133BB607B68BA689A42F8D3C0468B
:10015000C046BD4604B080BD80B584B000AFF86035
:10016000B9607A607B68002B05D10122BB689A4098
:10017000FB685A6404E00122BB689A40FB681A6479
:10018000C046BD4604B080BD80B582B000AF786087
:10019000396001223B689A407B681A64C046BD46BC
:1001A00002B080BD80B582B000AF786039600122B6
:1001B0003B689A407B685A64C046BD4602B080BD29
:1001C00080B582B000AF7860396001223B689A4008
:1001D0007B689A64C046BD4602B080BD80B584B0DD
:1001E00000AF786039607B680F4A944663441B0A0D
:1001F000FB60FB680D4A944663441B02BB603B688E
:100200001A687B681A603B689A687B689A603B68EA
:10021000DA687B689A613B681A69BB681A60C046F5
:10022000BD4604B080BDC0460000FCBF00024000D7
:1002300080B584B000AFF860B9607A601A00FB1C2A
:100240001A707B681A68B968FB681800FFF784FFAA
:100250007B685A68B968FB68180000F03BF8FB1C23
:100260001A78B968FB68180000F004F8C046BD466B
:1002700004B080BD80B588B000AFF860B960FB1DE8
:100280001A70FB68114A944663441B0AFB61FB69C0
:100290000F4A944663441B02BB61BB691B68BA6882
:1002A00092000F2191400A00D24313407B61FB1D55
:1002B0001B780F221A40BB689B009A407B691A4347
:1002C000BB691A60C046BD4608B080BD0000FCBFD7
:1002D0000002400080B586B000AFF860B9607A6077
:1002E000BA6813005B009B187B61FB689B68072161
:1002F0007A6991400A00D24313403B617B68072230
:100300001A407B699A403B691A43FB689A60FB6814
:100310009B690121BA6891400A00D24313403B61B6
:100320007B68DB0801221A40BB689A403B691A438C
:10033000FB689A61C046BD4606B080BD80B500AF7F
:10034000C046BD4680BD80B500AFC046BD4680BD3D
:1003500080B500AF01231800BD4680BD80B582B0D6
:1003600000AF7860396000F02DF9030016221A60A2
:1003700001235B421800BD4602B080BD80B582B04B
:1003800000AF786001235A427B6811001800FFF724
:10039000E5FFC046FDE780B586B000AFF860B96004
:1003A0007A6000237B610AE000E000BF0100BB68C7
:1003B0005A1CBA60CAB21A707B6901337B617A69D0
:1003C0007B689A42F0DB7B681800BD4606B080BDB2
:1003D00080B586B000AFF860B9607A6000237B61B9
:1003E00009E0BB685A1CBA601B78180000E000BF27
:1003F0007B6901337B617A697B689A42F1DB7B68B8
:100400001800BD4606B080BD80B582B000AF7860F0
:1004100001235B421800BD4602B080BD80B582B0AA
:1004200000AF786039603B68802292015A600023F7
:100430001800BD4602B080BD80B582B000AF7860C4
:1004400001231800BD4602B080BD80B584B000AF66
:10045000F860B9607A6000231800BD4604B080BD22
:100460000EB480B583B000AF786001235B42180002
:10047000BD4603B080BC08BC03B0184780B582B04D
:1004800000AF786000F09EF803000A221A60012392
:100490005B421800BD4602B080BD80B582B000AF9F
:1004A000786000F08FF8030002221A6001235B429B
:1004B0001800BD4602B080BD80B582B000AF786044
:1004C00001235B421800BD4602B080BD80B582B0FA
:1004D00000AF786039603B68802292015A60002347
:1004E0001800BD4602B080BD80B582B000AF786014
:1004F000396000F067F803001F221A6001235B4295
:100500001800BD4602B080BD80B500AF00F05AF8BB
:1005100003000B221A6001235B421800BD4680BD18
:1005200080B584B000AFF860B9607A6000F04AF836
:1005300003000C221A6001235B421800BD4604B080
:1005400080BD80B584B000AF7860124B1B68002B73
:1005500002D1104B104A1A600E4B1B68FB600D4B0A
:100560001A687B68D2186B469A4207D900F02AF8BD
:1005700003000C221A6001235B4206E0054B1A6857
:100580007B68D218034B1A60FB681800BD4604B0A4
:1005900080BDC04684000020003C002080B500AF34
:1005A000C046BD4680BD80B500AFC046BD4680BDDB
:1005B00080B500AFC046FDE780B500AFC046BD4680
:1005C00080BD0000014B18687047C0462C00002019
:1005D000010000000E00000000000000000000000C
:1005E000000000000A0000000100000002000000FE
:1005F00003000000040000000500000006000000E9
:100600000700000008000000090000000A000000C8
:1006100080B586B000AF1A4A1A4BD31A9B107B6084
:10062000184B7B61184B3B610023FB600AE03A6981
:10063000531C3B617B69591C796112781A70FB6805
:100640000133FB60FA687B689A42F0D30F4A104B83
:10065000D31A7B600E4B7B610023BB6007E07B6994
:100660005A1C7A6100221A70BB680133BB60BA68F9
:100670007B689A42F3D3FFF71BFDC046FDE7C046F7
:100680007C0000200000002094060000880000206C
:040690007C000020CA
:100694000000000000000000010000000100000054
:1006A4000000000000000000000000000100000045
:1006B4000100000000000000800000203000002045
:1006C400000000000000000068000000D0000000EE
:1006D4000000000000000000000000000000000016
:1006E4000000000000000000000000000000000006
:1006F40000000000000000000000000000000000F6
:0C070400000000000000000000000000E9
:0400000300000611E2
:00000001FF
