:1000000000400020DF0D0000750E00007D0E000096
:1000100000000000000000000000000000000000E0
:10002000000000000000000000000000750E00004D
:100030000000000000000000750E0000750E0000BA
:10004000750E0000750E0000750E0000750E0000A4
:10005000750E0000750E0000750E0000750E000094
:10006000750E0000750E0000750E0000750E000084
:10007000750E0000750E0000750E0000750E000074
:10008000750E0000750E000085010000750E000061
:10009000750E0000750E0000750E0000750E000054
:1000A000750E0000750E0000750E0000750E000044
:1000B0000000000000000000000000000000000040
:1000C00080B500AF002000F043FD264A26480023FB
:1000D000012100F015F9254A25480023052100F0EB
:1000E0000FF9244A22480823022100F009F900F000
:1000F00074F8214B21481A00012100F0D0FA1F4B5F
:100100000121180000F0DDFB1C4B01220121180029
:1001100000F0E9FB164B01220521180000F074F8ED
:10012000114B00220121180000F06EF8144A134B05
:100130000121180000F032FC0121122000F0D6FD50
:10014000122000F001FE122000F014FE00F0C2FDAB
:100150000A4B0221180000F0F9FB00F0BBFDC0467D
:10016000FDE7C046E40F000000020440F80F000065
:1001700000010440481000001C1100000000204055
:100180008813000080B500AF044B01220121180044
:1001900000F0E9FBC046BD4680BDC04600002040DF
:1001A00080B584B000AF78600023FB6002E0FB689C
:1001B0000133FB60FA687B689A42F8DB0023BB607E
:1001C00002E0BB680133BB60BA687B689A42F8DB27
:1001D000C046C046BD4604B080BD80B500AF032117
:1001E000012000F033FCEF220321012000F04AFC43
:1001F0000321012000F06EFC03220121072000F002
:1002000087FCC046BD4680BD80B584B000AFF860B5
:10021000B9607A607B68002B05D10122BB689A40E7
:10022000FB685A6404E00122BB689A40FB681A64C8
:10023000C046BD4604B080BD80B582B000AF7860D6
:1002400039607B685A683B68DA401300012213402A
:100250001800BD4602B080BD80B582B000AF7860A6
:10026000396001223B689A407B681A64C046BD46EB
:1002700002B080BD80B582B000AF786039600122E5
:100280003B689A407B685A64C046BD4602B080BD58
:1002900080B582B000AF7860396001223B689A4037
:1002A0007B689A64C046BD4602B080BD80B584B00C
:1002B00000AF786039607B680F4A944663441B0A3C
:1002C000FB60FB680D4A944663441B02BB603B68BD
:1002D0001A687B681A603B689A687B689A603B681A
:1002E000DA687B689A613B681A69BB681A60C04625
:1002F000BD4604B080BDC0460000FCBF0002400007
:1003000080B584B000AFF860B9607A601A00FB1C59
:100310001A707B681A68B968FB681800FFF774FFE9
:100320007B685A68B968FB68180000F051F8FB1C3C
:100330001A78B968FB68180000F019F87B689A68A9
:10034000B968FB68180000F077F87B68DA68FB682A
:100350001100180000F08FF87B681A69FB68110023
:10036000180000F0A1F8C046BD4604B080BD80B5BD
:1003700088B000AFF860B960FB1D1A70FB68124AC4
:10038000944663441B0AFB61FB69104A944663442C
:100390001B02BB61BB691B68BA6892000F219140C8
:1003A0000A00D24313407B61FB1D1B780F221A40C9
:1003B000BB689B009A407B691A43BB691A60C046C0
:1003C000BD4608B080BDC0460000FCBF0002400032
:1003D00080B586B000AFF860B9607A60BA68130083
:1003E0005B009B187B61FB689B6807217A699140E1
:1003F0000A00D24313403B617B6807221A407B69A5
:100400009A403B691A43FB689A60FB689B6901212B
:10041000BA6891400A00D24313403B617B68DB0815
:1004200001221A40BB689A403B691A43FB689A61F3
:10043000C046BD4606B080BD80B586B000AFF8604E
:10044000B9607A60BB685B007B61FB68DB68032195
:100450007A6991400A00D24313403B617B680322D2
:100460001A407B699A403B691A43FB68DA60C046D0
:10047000BD4606B080BD80B584B000AF78603960FD
:100480007B689B68074A1340FB603B681A06802321
:100490005B041A40FB681A437B689A60C046BD46FD
:1004A00004B080BDFFFFFFFE80B584B000AF786070
:1004B00039607B689B68084A1340FB603B685A06BA
:1004C00080239B041A40FB681A437B689A60C046ED
:1004D000BD4604B080BDC046FFFFFFFD80B582B0C1
:1004E00000AF786039607B681B6901223B689A40E5
:1004F0007B681A617B681B69C046BD4602B080BD3F
:1005000080B584B000AFF860B9607A607B685B68E2
:100510001B021B041A0C7B689B6899048023DB0276
:100520000B401A437B68DB681904C0239B020B4015
:100530001A437B681B691906E023DB040B401A434E
:100540007B681B7F002B01D0012300E000231343B5
:100550001900FB68BA6804329201D1507B68DB68ED
:10056000002B09D1F968BA6884235B0092018A18CC
:10057000D31800221A6017E07B68DB68012B0AD1D0
:100580007B681A68F868B96884235B0089014118A0
:10059000CB181A6008E0F968BA6884235B009201FE
:1005A0008A18D31801221A607B681B69002B13D1AB
:1005B0007B685A69F868B96886235B00890141182D
:1005C000CB181A607B689A69F868B96888235B0061
:1005D00089014118CB181A607B681A68F868B968F5
:1005E0008A235B0089014118CB181A607B689B6ADB
:1005F0000F221A407B681B6B1902F0231B010B4072
:100600001A437B689B6B1904F0231B030B401A43AE
:100610007B681B6C1B031B041B0C1A437B689B6CC5
:100620001B01FF210B401A43F868B96890235B0057
:1006300089014118CB181A607B685B6A03221A4053
:100640007B68DB6A1B0130210B401A437B685B6BC4
:100650001902C0239B000B401A437B68DB6B9B0194
:10066000FF210B401A437B685B6C9B000C210B4005
:100670001A43F868B96892235B0089014118CB18C6
:100680001A607B681A6AF868B9689C235B00890164
:100690004118CB181A60C046BD4604B080BD80B575
:1006A00084B000AFF860B9607A607B6828229B5CF8
:1006B000002B01D0012200E000227B681B7F002B71
:1006C00001D0022300E000231A437B681B699904D0
:1006D0008023DB020B401A437B689B681904C0230C
:1006E0009B020B401A437B681B681906E023DB045E
:1006F0000B401A437B68196B7B685B6B5B000B4399
:100700001905C0239B030B401A437B689B6B9B001E
:100710001A437B681B68052B05D17B68DB681B02CD
:100720001B041B0C04E07B685B681B021B041B0C96
:1007300013431900FB68BA6804329201D1507B68F8
:100740009B68002B12D1F968BA6884235B00920180
:100750008A18D31800221A60F968BA6894235B00DB
:1007600092018A18D31831221A6029E07B689B68AD
:10077000012B13D17B685A69F868B96884235B0040
:1007800089014118CB181A60F968BA6894235B0094
:1007900092018A18D3181C221A6011E0F968BA680D
:1007A00084235B0092018A18D31801221A60F96829
:1007B000BA6894235B0092018A18D31812221A6037
:1007C0007B681A6AF868B96886235B00890141185A
:1007D000CB181A607B685A6AF868B96888235B008E
:1007E00089014118CB181A607B685A69F868B968A2
:1007F0008A235B0089014118CB181A607B689A69CB
:10080000F868B9688C235B0089014118CB181A601D
:100810007B681B6C0F221A407B689B6C1902F023CB
:100820001B010B401A437B681B6D1904F0231B034B
:100830000B401A437B689B6D1B031B041B0C1A4364
:100840007B681B6E1B01FF210B401A43F868B968D7
:1008500090235B0089014118CB181A607B68DB6B21
:1008600003221A407B685B6C1B0130210B401A434A
:100870007B68DB6C1902C0239B000B401A437B682A
:100880005B6D9B01FF210B401A437B68DB6D9B0076
:100890000C210B401A43F868B96892235B00890168
:1008A0004118CB181A607B68DA6AF868B9689C232B
:1008B0005B0089014118CB181A60C046BD4604B0E0
:1008C00080BD80B582B000AF786039607B681A68FF
:1008D00001213B6899400B001A437B681A60C046AF
:1008E000BD4602B080BD80B584B000AFF860B9608D
:1008F0007A60F968BA689A235B0092018A18D31863
:100900007A681A60C046BD4604B080BD80B584B028
:1009100000AFF860B9607A60F968BA688A235B0052
:1009200092018A18D3187A681A60C046BD4604B08E
:1009300080BD80B582B000AF786039603B681A0630
:100940007B689A60C046BD4602B080BD80B582B06B
:1009500000AF786039603B681A027B689A60C046D5
:10096000BD4602B080BD80B584B000AFF860B9600C
:100970007A60F968BA6898235B0092018A18D318E4
:100980007A681A60F968BA6898235B0092018A183D
:10099000D3181B68C046BD4604B080BD80B584B086
:1009A00000AFF860B9607A60F968BA6886235B00C6
:1009B00092018A18D3187A681A60C046BD4604B0FE
:1009C00080BD80B584B000AFF860B9607A60F96826
:1009D000BA6888235B0092018A18D3187A681A6073
:1009E000C046BD4604B080BD80B584B000AFF8609D
:1009F000B9607A60F968BA6884235B0092018A184A
:100A0000D3187A681A60C046BD4604B080BD80B570
:100A100082B000AF786039603B681A047B689A60E6
:100A2000C046BD4602B080BD80B582B000AF7860E0
:100A3000396079683A6884235B0092018A18D31878
:100A40001B681800BD4602B080BD000080B582B0B2
:100A500000AF02003960FB1D1A70FB1D1B789B0163
:100A6000FF221A403B683F210B401A43044B802170
:100A7000C9050A431A60C046BD4602B080BDC046E3
:100A80000000014080B584B000AFB9607A600F21EA
:100A90007B18021C1A707B187A1812781A700A4A8E
:100AA000BB68C0339B009B58084A1A407B681B02F6
:100AB00007490B4004491A43BB68C0339B005A5096
:100AC000C046BD4604B080BD00000140FF0000FFED
:100AD00000FFFF0080B582B000AF02003960FB1D4F
:100AE0001A70FB1D1B789B01FF221A403B683F21B7
:100AF0000B401A43044B05490A431A60024B1B681A
:100B0000C046BD4602B080BD0000014000FF00802D
:100B100080B582B000AF3A60FB1D021C1A70BB1D8D
:100B20000A1C1A70BB1D1B789B01FF221340190081
:100B30003B683F221A400548FB1D1B780A4340339F
:100B40009B001A50C046BD4602B080BD0000014067
:100B500080B582B000AF0200FB1D1A70084B9B6A83
:100B60000C2293431900FB1D1B789B000C221A409A
:100B7000034B0A439A62C046BD4602B080BDC046E0
:100B80000000034080B500AF034B802212061A63B9
:100B9000C046BD4680BDC0460000034080B500AFE2
:100BA0000A4A0B4BD3589B001C22134019000A0021
:100BB0005201521A93019B1ADB005B189B01054AF4
:100BC000944663441800BD4680BDC0460000034003
:100BD000080F000000366E0180B586B000AF786067
:100BE000FFF7DCFF02007B6893425FD07B68314AED
:100BF000944663443049180000F044F90300FB6058
:100C00002E4A2F4B0021D1502E49E623FF33FA689C
:100C10008A18D3181B78DBB2284A19002A4BD15006
:100C2000264AF1231B010021D1502649E6235B000F
:100C3000FA688A18D3181B78DBB2204A1900234BB4
:100C4000D150FB689B08FB6000237B6102E07B695D
:100C500001337B617B691E4A9342F8DDFB68002B00
:100C600024D0164A164BD358072293431A00FB6828
:100C7000013B07210B4011491343114A8B500023BC
:100C80003B6102E03B6901333B613B69104A93429F
:100C9000F8DD0A4A0A4BD358072293431A00FB682F
:100CA00007210B4005491343054A8B50C046BD46FA
:100CB00006B080BD00CA91FE40420F000000034014
:100CC000080F000000F0FF0F0C0F0000180F0000CD
:100CD0004FC3000080B500AF62B6C046BD4680BDC0
:100CE00080B500AF72B6C046BD4680BD80B582B04B
:100CF00000AF786039607B68002B1FDB114A7B688E
:100D00009B08C0339B009B587A6803210A40D2009D
:100D1000FF2191400A00D2431A4011003B689B0119
:100D2000FF221A407B6803200340DB009A400548FD
:100D30007B689B080A43C0339B001A50C046BD46DF
:100D400002B080BD00E100E080B582B000AF786005
:100D50007B68002B08DB7B681F22134004490122BB
:100D60009A40C0235B00CA50C046BD4602B080BD59
:100D700000E100E080B582B000AF78607B68002BB6
:100D800007DB7B681F221A40044B012191400A00B7
:100D90001A60C046BD4602B080BDC04600E100E01A
:100DA00080B582B000AF78607B68002B0CDB7B687D
:100DB0001F221340064901229A40130080228B50C3
:100DC000BFF34F8FBFF36F8FC046BD4602B080BDEB
:100DD00000E100E080B500AFC046BD4680BD80B5F3
:100DE00086B000AF1C4B1D4A1A601D4A1D4BD31A1A
:100DF0009B107B601B4B7B611B4B3B610023FB60AB
:100E00000AE03A69131D3B617B69191D796112681B
:100E10001A60FB680133FB60FA687B689A42F0D382
:100E2000124A134BD31A9B107B60114B7B6100233A
:100E3000BB6007E07B691A1D7A6100221A60BB68FB
:100E40000133BB60BA687B689A42F3D300F0A6F81E
:100E5000FFF736F9C046FDE7380003406588EDAC82
:100E60000000002000000020801100000000002091
:100E70000000002080B500AFC046FDE780B500AFA0
:100E8000C046FDE7002243088B4274D303098B421E
:100E90005FD3030A8B4244D3030B8B4228D3030C4A
:100EA0008B420DD3FF22090212BA030C8B4202D3EC
:100EB0001212090265D0030B8B4219D300E0090A14
:100EC000C30B8B4201D3CB03C01A5241830B8B421D
:100ED00001D38B03C01A5241430B8B4201D34B0306
:100EE000C01A5241030B8B4201D30B03C01A52416B
:100EF000C30A8B4201D3CB02C01A5241830A8B42F0
:100F000001D38B02C01A5241430A8B4201D34B02D8
:100F1000C01A5241030A8B4201D30B02C01A52413C
:100F2000CDD2C3098B4201D3CB01C01A52418309F0
:100F30008B4201D38B01C01A524143098B4201D32A
:100F40004B01C01A524103098B4201D30B01C01A55
:100F50005241C3088B4201D3CB00C01A52418308CF
:100F60008B4201D38B00C01A524143088B4201D3FC
:100F70004B00C01A5241411A00D20146524110465C
:100F80007047FFE701B5002000F006F802BDC0463B
:100F90000029F7D076E770477047C04670B5002645
:100FA0000C4C0D4D641BA410A64209D10026FFF77E
:100FB00011FF0A4C0A4D641BA410A64205D170BD56
:100FC000B300EB5898470136EEE7B300EB5898476B
:100FD0000136F2E700000000000000000000000001
:100FE00000000000010000000600000000000000FA
:100FF00000000000000000000100000006000000EA
:1010000000000000000000000000000001000000DF
:1010100006000000000000000000000000000000CA
:1010200001000000020000000200000000000000BB
:1010300000000000010000000600000000000000A9
:101040000000000000000000010000000600000099
:10105000000000000000000000000000010000008F
:10106000060000000000000000000000000000007A
:101070000100000006000000000000000000000069
:1010800000000000008000000000000000000000E0
:1010900000000000020000000040000000400000CE
:1010A000000000000100000003000000000000003C
:1010B000030000000000000003000000000000002A
:1010C0000300000000000000030000000100000019
:1010D00060EA0000000000000000000000000000C6
:1010E000020000000040000000400000000000007E
:1010F00000000000030000000000000003000000EA
:1011000000000000030000000000000003000000D9
:1011100000000000030000000100000004000000C7
:1011200009000000000000000000000000000000B6
:101130001027000088130000000000008813000042
:10114000E8030000000000000100000000000000B3
:10115000000000000200000003000000000000008A
:101160000300000000000000030000000000000079
:101170000300000000000000030000000100000068
:0400000300000DDF0D
:00000001FF
