:100000000040002033160000C9160000D116000081
:1000100000000000000000000000000000000000E0
:10002000000000000000000000000000C9160000F1
:100030000000000000000000C9160000C916000002
:10004000C9160000C9160000C916000041010000D1
:10005000C9160000C9160000C9160000C916000024
:10006000C9160000C9160000C9160000C916000014
:10007000C9160000C9160000C9160000C916000004
:10008000C9160000210D0000B1140000C9160000BF
:10009000C9160000C9160000C9160000C9160000E4
:1000A000C9160000C9160000C9160000C9160000D4
:1000B0000000000000000000000000000000000040
:1000C00080B500AF002000F02DFD184B0022052167
:1000D000180000F083F8164B00220521180000F0EC
:1000E0007DF801F096F901F065F9124A10480023F5
:1000F000012100F0EFF800F03FFE00F0D5FD00F028
:10010000EAFD0D4A0D480023072100F0E3F8032122
:10011000032001F015FA032001F040FA032001F05A
:1001200053FA01F001FAC046FDE7C0460001044061
:1001300000020440001900009C1800000003044065
:1001400080B500AF124B0721180000F0B1F9114B38
:10015000180000F025F80E4B0721180000F056F8A3
:10016000031E11D10C4B01220521180000F036F8B6
:100170000A4B00220521180000F030F801F08CF93C
:1001800000F0F1FF00F0E6FDC046BD4680BDC04670
:1001900000030440204E000000010440000204401F
:1001A00080B584B000AF78600023FB6002E0FB689C
:1001B0000133FB60FA687B689A42F8DB0023BB607E
:1001C00002E0BB680133BB60BA687B689A42F8DB27
:1001D000C046C046BD4604B080BDC04680B584B0B0
:1001E00000AFF860B9607A607B68002B05D101220E
:1001F000BB689A40FB685A6404E00122BB689A40DD
:10020000FB681A64C046BD4604B080BD80B582B0AC
:1002100000AF786039607B685A683B68DA40130049
:10022000012213401800BD4602B080BD80B582B0E7
:1002300000AF7860396001223B689A407B681A649D
:10024000C046BD4602B080BD80B582B000AF7860C8
:10025000396001223B689A407B685A64C046BD46BB
:1002600002B080BD80B582B000AF786039600122F5
:100270003B689A407B689A64C046BD4602B080BD28
:1002800080B584B000AF786039607B680F4A9446CF
:1002900063441B0AFB60FB680D4A944663441B02DF
:1002A000BB603B681A687B681A603B689A687B6829
:1002B0009A603B68DA687B689A613B681A69BB6838
:1002C0001A60C046BD4604B080BDC0460000FCBFF9
:1002D0000002400080B584B000AFF860B9607A6079
:1002E0001A00FB1C1A707B681A68B968FB68180052
:1002F000FFF774FF7B685A68B968FB68180000F064
:1003000051F8FB1C1A78B968FB68180000F019F85E
:100310007B689A68B968FB68180000F077F87B681A
:10032000DA68FB681100180000F08FF87B681A6922
:10033000FB681100180000F0A1F8C046BD4604B0EB
:1003400080BD80B588B000AFF860B960FB1D1A7041
:10035000FB68124A944663441B0AFB61FB69104A1E
:10036000944663441B02BB61BB691B68BA68920078
:100370000F2191400A00D24313407B61FB1D1B7883
:100380000F221A40BB689B009A407B691A43BB69E5
:100390001A60C046BD4608B080BDC0460000FCBF24
:1003A0000002400080B586B000AFF860B9607A60A6
:1003B000BA6813005B009B187B61FB689B68072190
:1003C0007A6991400A00D24313403B617B6807225F
:1003D0001A407B699A403B691A43FB689A60FB6844
:1003E0009B690121BA6891400A00D24313403B61E6
:1003F0007B68DB0801221A40BB689A403B691A43BC
:10040000FB689A61C046BD4606B080BD80B586B027
:1004100000AFF860B9607A60BB685B007B61FB6825
:10042000DB6803217A6991400A00D24313403B61A3
:100430007B6803221A407B699A403B691A43FB6838
:10044000DA60C046BD4606B080BD80B584B000AF5E
:10045000786039607B689B68074A1340FB603B68A3
:100460001A0680235B041A40FB681A437B689A6073
:10047000C046BD4604B080BDFFFFFFFE80B584B01E
:1004800000AF786039607B689B68084A1340FB6066
:100490003B685A0680239B041A40FB681A437B681A
:1004A0009A60C046BD4604B080BDC046FFFFFFFD58
:1004B00080B582B000AF786039607B681B6901222B
:1004C0003B689A407B681A617B681B69C046BD46E1
:1004D00002B080BD80B584B000AFF860B9607A60CA
:1004E0007B685B681B021B041A0C7B689B68990481
:1004F0008023DB020B401A437B68DB681904C023AE
:100500009B020B401A437B681B691906E023DB043E
:100510000B401A437B681B7F002B01D0012300E0B6
:10052000002313431900FB68BA6804329201D150CA
:100530007B68DB68002B09D1F968BA6884235B000B
:1005400092018A18D31800221A6017E07B68DB68D2
:10055000012B0AD17B681A68F868B96884235B00AC
:1005600089014118CB181A6008E0F968BA68842339
:100570005B0092018A18D31801221A607B681B69FC
:10058000002B13D17B685A69F868B96886235B0031
:1005900089014118CB181A607B689A69F868B968B4
:1005A00088235B0089014118CB181A607B681A68A0
:1005B000F868B9688A235B0089014118CB181A6072
:1005C0007B689B6A0F221A407B681B6B1902F02321
:1005D0001B010B401A437B689B6B1904F0231B0320
:1005E0000B401A437B681B6C1B031B041B0C1A4338
:1005F0007B689B6C1B01FF210B401A43F868B968AC
:1006000090235B0089014118CB181A607B685B6AF4
:1006100003221A407B68DB6A1B0130210B401A431E
:100620007B685B6B1902C0239B000B401A437B68FD
:10063000DB6B9B01FF210B401A437B685B6C9B00CB
:100640000C210B401A43F868B96892235B008901BA
:100650004118CB181A607B681A6AF868B9689C233D
:100660005B0089014118CB181A60C046BD4604B032
:1006700080BD80B584B000AFF860B9607A607B68F7
:1006800028229B5C002B01D0012200E000227B6825
:100690001B7F002B01D0022300E000231A437B685C
:1006A0001B6999048023DB020B401A437B689B681B
:1006B0001904C0239B020B401A437B681B68190670
:1006C000E023DB040B401A437B68196B7B685B6B90
:1006D0005B000B431905C0239B030B401A437B6847
:1006E0009B6B9B001A437B681B68052B05D17B68BD
:1006F000DB681B021B041B0C04E07B685B681B02AD
:100700001B041B0C13431900FB68BA6804329201E6
:10071000D1507B689B68002B12D1F968BA6884239A
:100720005B0092018A18D31800221A60F968BA682F
:1007300094235B0092018A18D31831221A6029E0B1
:100740007B689B68012B13D17B685A69F868B9688C
:1007500084235B0089014118CB181A60F968BA68D4
:1007600094235B0092018A18D3181C221A6011E0AE
:10077000F968BA6884235B0092018A18D3180122B1
:100780001A60F968BA6894235B0092018A18D3183A
:1007900012221A607B681A6AF868B96886235B00BF
:1007A00089014118CB181A607B685A6AF868B968E1
:1007B00088235B0089014118CB181A607B685A694D
:1007C000F868B9688A235B0089014118CB181A6060
:1007D0007B689A69F868B9688C235B0089014118C5
:1007E000CB181A607B681B6C0F221A407B689B6CCD
:1007F0001902F0231B010B401A437B681B6D19047F
:10080000F0231B030B401A437B689B6D1B031B04E7
:100810001B0C1A437B681B6E1B01FF210B401A4304
:10082000F868B96890235B0089014118CB181A60F9
:100830007B68DB6B03221A407B685B6C1B013021F9
:100840000B401A437B68DB6C1902C0239B000B40F2
:100850001A437B685B6D9B01FF210B401A437B6849
:10086000DB6D9B000C210B401A43F868B96892239A
:100870005B0089014118CB181A607B68DA6AF86856
:10088000B9689C235B0089014118CB181A60C046E7
:10089000BD4604B080BD80B582B000AF78603960DD
:1008A0007B681A6801213B6899400B001A437B68FA
:1008B0001A60C046BD4602B080BD80B584B000AFAE
:1008C000F860B9607A60F968BA689A235B009201AF
:1008D0008A18D3187A681A60C046BD4604B080BD35
:1008E00080B584B000AFF860B9607A60F968BA6822
:1008F0008A235B0092018A18D3187A681A60C0466E
:10090000BD4604B080BD80B582B000AF786039606C
:100910003B681A067B689A60C046BD4602B080BD3F
:1009200080B582B000AF786039603B681A027B689E
:100930009A60C046BD4602B080BD80B584B000AFAD
:10094000F860B9607A60F968BA6898235B00920130
:100950008A18D3187A681A60F968BA6898235B0015
:1009600092018A18D3181B68C046BD4604B080BDEA
:1009700080B584B000AFF860B9607A60F968BA6891
:1009800086235B0092018A18D3187A681A60C046E1
:10099000BD4604B080BD80B584B000AFF860B960DA
:1009A0007A60F968BA6888235B0092018A18D318C4
:1009B0007A681A60C046BD4604B080BD80B584B078
:1009C00000AFF860B9607A60F968BA6884235B00A8
:1009D00092018A18D3187A681A60C046BD4604B0DE
:1009E00080BD80B582B000AF786039603B681A0482
:1009F0007B689A60C046BD4602B080BD80B582B0BB
:100A000000AF7860396079683A6884235B009201AE
:100A10008A18D3181B681800BD4602B080BD0000BC
:100A200080B582B000AF02003960FB1D1A70FB1D5B
:100A30001B789B01FF221A403B683F210B401A4361
:100A4000044B8021C9050A431A60C046BD4602B066
:100A500080BDC0460000014080B584B000AFB960E1
:100A60007A600F217B18021C1A707B187A18127892
:100A70001A700A4ABB68C0339B009B58084A1A4048
:100A80007B681B0207490B4004491A43BB68C0330B
:100A90009B005A50C046BD4604B080BD00000140D6
:100AA000FF0000FF00FFFF0080B582B000AF020032
:100AB0003960FB1D1A70FB1D1B789B01FF221A4039
:100AC0003B683F210B401A43044B05490A431A6017
:100AD000024B1B68C046BD4602B080BD000001400D
:100AE00000FF008080B582B000AF3A60FB1D021CA1
:100AF0001A70BB1D0A1C1A70BB1D1B789B01FF22BC
:100B0000134019003B683F221A400548FB1D1B7823
:100B10000A4340339B001A50C046BD4602B080BD18
:100B20000000014080B582B000AF0200FB1D1A70CA
:100B3000084B9B6A0C2293431900FB1D1B789B00FA
:100B40000C221A40034B0A439A62C046BD4602B0CB
:100B500080BDC0460000034080B500AF034B80223B
:100B600012061A63C046BD4680BDC0460000034061
:100B700080B500AF0A4A0B4BD3589B001C22134090
:100B800019000A005201521A93019B1ADB005B18EC
:100B90009B01054A944663441800BD4680BDC0468B
:100BA00000000340080F000000366E0180B586B0DB
:100BB00000AF7860FFF7DCFF02007B6893425FD0F4
:100BC0007B68314A944663443049180000F084FD44
:100BD0000300FB602E4A2F4B0021D1502E49E62303
:100BE000FF33FA688A18D3181B78DBB2284A190039
:100BF0002A4BD150264AF1231B010021D15026490E
:100C0000E6235B00FA688A18D3181B78DBB2204A07
:100C10001900234BD150FB689B08FB6000237B61CC
:100C200002E07B6901337B617B691E4A9342F8DDF8
:100C3000FB68002B24D0164A164BD3580722934347
:100C40001A00FB68013B07210B4011491343114A6D
:100C50008B5000233B6102E03B6901333B613B6900
:100C6000104A9342F8DD0A4A0A4BD35807229343AD
:100C70001A00FB6807210B4005491343054A8B50B6
:100C8000C046BD4606B080BD00CA91FE40420F007E
:100C900000000340080F000000F0FF0F0C0F0000E1
:100CA000180F00004FC3000080B500AF01210120E4
:100CB000FFF7B6FE172201210120FFF7CDFE01212B
:100CC0000120FFF7F1FE012201210620FFF70AFFB4
:100CD000C046BD4680BD80B500AF0221112000F0A6
:100CE0002FFC112000F05AFC112000F06DFC0A4B83
:100CF0000A481A000021FFF7EDFB084B00211800FD
:100D0000FFF7C9FD054B012200211800FFF7D5FDB3
:100D1000C046BD4680BDC046E81900000000204026
:100D200080B500AF094B012200211800FFF705FE36
:100D300000F0B8FA03009AB2054B1A80044B1B88E6
:100D4000180000F0CDFBC046BD4680BD000020402D
:100D50000000002080B500AF064B002200211800E3
:100D6000FFF72CFE034B01211800FFF7CCFDC04616
:100D7000BD4680BD0000204080B588B000AFBE4BAE
:100D80003B61BE4BFB600023BB6100237B613B6981
:100D90001A68C0239B051A403B691A603B691A68B0
:100DA000FB681B781B0170211940FB685B78002BE6
:100DB00001D0802300E000231943FB689B78580290
:100DC000E0231B0103401943FB68DB7858038023B1
:100DD0009B0103401943FB681B79002B02D0802341
:100DE0005B0300E000231943FB685B791806C0230E
:100DF0009B0403401943FB689B79002B02D080239E
:100E00001B0500E000231943FB68DB79002B02D0AF
:100E10008023DB0500E000230B431A433B691A6083
:100E20003B695A6880231B031A403B695A603B693F
:100E30005A68FB681B7A190001231940FB685B7A2A
:100E4000002B01D0022300E000231943FB689B7AAA
:100E5000002B01D0042300E000231943FB68DB7A58
:100E6000002B01D0082300E000231943FB681B7B03
:100E70001B01702003401943FB685B7B002B01D0F2
:100E8000802300E000231943FB689B7B58048023E8
:100E90009B0203401943FB68DB7B002B02D08023BD
:100EA0001B0600E000230B431A433B695A60FB68B2
:100EB0001B699B059A0DFB685B691B0470490B401D
:100EC0001A433B691A61FB689B699B059A0DFB6895
:100ED000DB691B046A490B401A433B695A61FB6892
:100EE0001B6A1B041A0CFB685B6A1B041A433B69F0
:100EF0009A61FB6828229B5C9A073B69DA61FB6870
:100F0000DB6A1B041A0C3B691A621F23FB180022C0
:100F10001A70D0E01F217B181A78FB680C329200FF
:100F2000D358BB60BB68002B00D1BEE07B181B7898
:100F3000072B2CD8BB681B6877221A40BB681B792B
:100F4000002B02D080235B0000E000231A43BB6823
:100F50005B79590280239B000B401A43BB689B7945
:100F6000002B02D08023DB0000E000231343190094
:100F7000BB68DB791A03C0239B0113401F22BA18F8
:100F8000127819433B6920329200D15028E0BB68A7
:100F90001B6807221A40BB681B79002B02D08023F4
:100FA0005B0000E000231A43BB685B795902802391
:100FB0009B000B401A43BB689B79002B02D0802317
:100FC000DB0000E000231A43BB68DB791903C02370
:100FD0009B010B401A4311003A69A0239B00D1509A
:100FE000BB681B7901225340DBB2002B0FD0FB689A
:100FF0009B78072B0BD1FB689B7A002B07D01F2314
:10100000FB181A781F4B52001F49D15207E01F23CB
:10101000FB181A781B4B013252000021D1521F22BB
:10102000BB181B78102B19D8BB681B7A002B07D074
:10103000BB181B7801229A4013007A6913437B6125
:10104000BB685B7A002B30D01F23FB181B78012272
:101050009A401300BA691343BB6126E0BB681B7A50
:10106000002B01D0402200E00022BB685B7A002BFD
:101070000CD020230BE0C04600003A406C19000061
:101080000000FF030400002000F8FFFF00231343CB
:101090007B607A683B691100180000F05DF97A689E
:1010A0003B691100180000F046F91F217B181A78DF
:1010B0007B1801321A701F23FB181B78102B00D8E5
:1010C00028E7BA693B691100180000F03BF8BA69DB
:1010D0003B691100180000F0FBF87A693B691100C8
:1010E000180000F017F97A693B691100180000F048
:1010F00000F9134AD0239B000221D150104AC0238B
:101100009B000221D1500E4B1A680D4B802109061D
:101110000A431A600A49C0239B0080225202CA5027
:10112000074AD0239B00D3580549802252021A4314
:10113000D0239B00CA50C046BD4608B080BDC04603
:1011400000003A4080B582B000AF786039603B68FB
:10115000FF22134019007A6888239B00D150C046B3
:10116000BD4602B080BD80B582B000AF0D4B3B6084
:101170003B681B68802212061A433B681A600023F2
:101180007B6002E07B6801337B607B68064A9342A8
:10119000F8DD044B0021180000F032F8C046BD46CF
:1011A00002B080BD00003A404FC3000080B500AFE0
:1011B000124AD0239B000221D150104AC0239B0029
:1011C0000221D1500D4B1A680C4B802109060A43AD
:1011D0001A600A49C0239B0080225202CA50074A63
:1011E000D0239B00D3580549802252021A43D023B2
:1011F0009B00CA50C046BD4680BDC04600003A4074
:1012000080B582B000AF78600A00FB1C1A70FB1C2E
:101210001B78002B02D0012B08D00BE07B685B68A9
:10122000802252021A437B685A6003E07B680122E5
:101230005A62C046C046BD4602B080BD80B586B089
:1012400000AF7860396000233B6100237B6106E0DA
:101250007A6884239B00D358012213407B617B6909
:10126000002BF5D07A6884239B00D35801221A43BF
:1012700011007A6884239B00D1507B683A68603201
:101280009200D3581B041B0C3B613B69044A534337
:10129000DB0AFB60FB681BB21800BD4606B080BDD0
:1012A0008813000080B582B000AF084B7B607B687C
:1012B00001211800FFF7A4FF7B6800211800FFF749
:1012C000BDFF03001800BD4602B080BD00003A40DB
:1012D00080B582B000AF786039603B68FF22134070
:1012E00019007A688A239B00D150C046BD4602B0DF
:1012F00080BD80B582B000AF786039603B68FF2266
:10130000134019007A688E239B00D150C046BD4619
:1013100002B080BD80B582B000AF786039603B68B4
:10132000FF22134019007A688C239B00D150C046DD
:10133000BD4602B080BD80B582B000AF7860396034
:101340003B68F722134019007A6886239B00D1502E
:10135000C046BD4602B080BD80B582B000AF7860A7
:1013600039603B68F722134019007A6884239B0098
:10137000D150C046BD4602B080BD80B584B000AF3C
:101380000200BB1D1A80BB1D00229B5E074A53430F
:10139000002B02DA064A94466344DB12FB60FB68CA
:1013A0001BB21800BD4604B080BDC04688130000C3
:1013B000FF07000080B500AF05210120FFF730FBDB
:1013C000172205210120FFF747FB05210120FFF728
:1013D0006BFB052201211220FFF784FBC046BD46AE
:1013E00080BDC04680B500AF00210120FFF718FB8B
:1013F000002200210120FFF72FFB00210120FFF731
:1014000053FB002201210720FFF76CFBC046BD46BD
:1014100080BD80B500AF194A194800230521FEF7A9
:1014200059FF184A184800230521FEF753FF174AB1
:10143000134808230621FEF74DFFFFF7D3FF0121D4
:10144000122000F07DF8122000F0A8F8122000F021
:10145000BBF80F4B0F481A000121FFF70AF90D4B9B
:1014600001211800FFF717FA0A4B01220121180089
:10147000FFF723FAC046BD4680BDC0466018000095
:10148000000204404C18000000010440D81800007D
:10149000341A00000000204080B500AF034B022149
:1014A0001800FFF73DFAC046BD4680BD0000204051
:1014B00080B500AF084B012201211800FFF73DFA6B
:1014C000064B1B881A00044B01211800FFF750FA45
:1014D000C046BD4680BDC04600002040260000201A
:1014E00080B582B000AF0200BB1D1A80BB1D1B88F7
:1014F0000B4A944663449AB20A4B1A80094B1B88E4
:101500006421180000F0E8F803009BB2054A128835
:1015100053439AB2034B1A80C046BD4602B080BD09
:10152000F8F8FFFF2600002080B500AF62B6C04685
:10153000BD4680BD80B500AF72B6C046BD4680BD19
:1015400080B582B000AF786039607B68002B1FDB0C
:10155000114A7B689B08C0339B009B587A68032123
:101560000A40D200FF2191400A00D2431A401100E4
:101570003B689B01FF221A407B6803200340DB008D
:101580009A4005487B689B080A43C0339B001A5069
:10159000C046BD4602B080BD00E100E080B582B02B
:1015A00000AF78607B68002B08DB7B681F2213404C
:1015B000044901229A40C0235B00CA50C046BD4680
:1015C00002B080BD00E100E080B582B000AF78607D
:1015D0007B68002B07DB7B681F221A40044B01212C
:1015E00091400A001A60C046BD4602B080BDC046A8
:1015F00000E100E080B582B000AF78607B68002B2E
:101600000CDB7B681F221340064901229A4013001D
:1016100080228B50BFF34F8FBFF36F8FC046BD4604
:1016200002B080BD00E100E080B500AFC046BD461D
:1016300080BD80B586B000AF1C4B1D4A1A601D4AA4
:101640001D4BD31A9B107B601B4B7B611B4B3B617B
:101650000023FB600AE03A69131D3B617B69191D99
:10166000796112681A60FB680133FB60FA687B6875
:101670009A42F0D3124A134BD31A9B107B60114B42
:101680007B610023BB6007E07B691A1D7A61002241
:101690001A60BB680133BB60BA687B689A42F3D3B7
:1016A00000F0A6F8FEF70CFDC046FDE73800034049
:1016B0006588EDAC0000002000000020981A0000B2
:1016C0002C0000200000002080B500AFC046FDE7E0
:1016D00080B500AFC046FDE7002243088B4274D3BB
:1016E00003098B425FD3030A8B4244D3030B8B4223
:1016F00028D3030C8B420DD3FF22090212BA030C2C
:101700008B4202D31212090265D0030B8B4219D30C
:1017100000E0090AC30B8B4201D3CB03C01A52412C
:10172000830B8B4201D38B03C01A5241430B8B4274
:1017300001D34B03C01A5241030B8B4201D30B035D
:10174000C01A5241C30A8B4201D3CB02C01A524184
:10175000830A8B4201D38B02C01A5241430A8B4247
:1017600001D34B02C01A5241030A8B4201D30B0230
:10177000C01A5241CDD2C3098B4201D3CB01C01A4A
:10178000524183098B4201D38B01C01A5241430954
:101790008B4201D34B01C01A524103098B4201D342
:1017A0000B01C01A5241C3088B4201D3CB00C01AAF
:1017B000524183088B4201D38B00C01A5241430827
:1017C0008B4201D34B00C01A5241411A00D201464C
:1017D000524110467047FFE701B5002000F006F8BF
:1017E00002BDC0460029F7D076E770477047C04673
:1017F00070B500260C4C0D4D641BA410A64209D1F7
:101800000026FFF711FF0A4C0A4D641BA410A642E4
:1018100005D170BDB300EB5898470136EEE7B30031
:10182000EB5898470136F2E7000000000000000086
:1018300000000000000000000100000006000000A1
:101840000000000000000000000000000100000097
:101850000600000000000000000000000000000082
:101860000100000006000000000000000000000071
:101870000000000001000000060000000000000061
:101880000000000000000000010000000600000051
:101890000000000000000000000000000100000047
:1018A0000200000002000000000000000000000034
:1018B0000100000006000000000000000000000021
:1018C0000000000001000000060000000000000011
:1018D0000000000000000000010000000600000001
:1018E00000000000000000000000000001000000F7
:1018F00006000000000000000000000000000000E2
:1019000001000000090000000000000000000000CD
:101910000000000000800000000000000000000047
:101920000000000002000000004000000040000035
:1019300000000000000000000300000000000000A4
:101940000300000000000000030000000000000091
:101950000300000000000000030000000100000080
:10196000010000000000000000000000070000016E
:101970000001000001000001070100000D0000004F
:101980000200000002000000020000000000000051
:1019900000000000000000000100000060190000CD
:1019A0000000000000000000000000000000000037
:1019B0000000000000000000000000000000000027
:1019C0000000000000000000000000000000000017
:1019D0000000000000000000000000000000000007
:1019E00000000000881300002C310100800000007E
:1019F00000000000000000000200000000400000A5
:101A00000040000000000000030000000300000090
:101A100000000000030000000000000003000000C0
:101A200000000000030000000000000003000000B0
:101A300001000000040000000000000000000000A1
:101A40000000000000000000881300008813000060
:101A50000000000088130000E80300000000000000
:101A60000100000000000000000000000200000073
:101A70000300000000000000030000000000000060
:101A80000300000000000000030000000000000050
:081A900003000000010000004A
:0400000300001633B0
:00000001FF
