:1000000000400020C30600005907000061070000FF
:1000100000000000000000000000000000000000E0
:100020000000000000000000000000005907000070
:100030000000000000000000590700005907000000
:100040005907000059070000590700005907000030
:100050005907000059070000590700005907000020
:100060005907000059070000590700005907000010
:100070005907000059070000590700005907000000
:1000800059070000590700005907000059070000F0
:1000900059070000590700005907000059070000E0
:1000A00059070000590700005907000059070000D0
:1000B00080B582B000AF00237B60314A3148002315
:1000C000022100F00BF9304A30480023072100F0EC
:1000D00005F92F4A2B480023002100F0FFF82D4A94
:1000E0002D480023062100F0F9F82C4B00221A704D
:1000F000012000F0C9FA0300102B06D1264B002284
:100100000621180000F06EF805E0234B01220621BD
:10011000180000F067F81D4B0721180000F07AF86E
:10012000031E0ED11D4B1B78002B0AD11C4B18004F
:1001300000F03AF8154B0721180000F06BF800F0BA
:1001400091FA104B01220221180000F04BF8154BD8
:10015000180000F029F80B4B00220221180000F0D3
:1001600041F8104B180000F01FF87B6801337B60EA
:100170007B680C4A9342CED100237B60CBE7C0461C
:10018000C007000000020440FC0700000003044018
:10019000D4070000E80700000001044054000020DC
:1001A000204E000060EA000080B584B000AF7860A7
:1001B0000023FB6002E0FB680133FB607B68FA68A8
:1001C0009A42F8D30023BB6002E0BB680133BB60F6
:1001D0007B68BA689A42F8D3C046C046BD4604B0B0
:1001E00080BDC04680B584B000AFF860B9607A6069
:1001F0007B68002B05D10122BB689A40FB685A64DA
:1002000004E00122BB689A40FB681A64C046BD4600
:1002100004B080BD80B582B000AF786039607B6883
:100220005A683B68DA401300012213401800BD46AB
:1002300002B080BD80B582B000AF78603960012225
:100240003B689A407B681A64C046BD4602B080BDD8
:1002500080B582B000AF7860396001223B689A4077
:100260007B685A64C046BD4602B080BD80B582B08E
:1002700000AF7860396001223B689A407B689A64DD
:10028000C046BD4602B080BD80B584B000AF786086
:1002900039607B680F4A944663441B0AFB60FB6825
:1002A0000D4A944663441B02BB603B681A687B6836
:1002B0001A603B689A687B689A603B68DA687B687A
:1002C0009A613B681A69BB681A60C046BD4604B0B3
:1002D00080BDC0460000FCBF0002400080B584B075
:1002E00000AFF860B9607A601A00FB1C1A707B6876
:1002F0001A68B968FB681800FFF774FF7B685A68D2
:10030000B968FB68180000F03BF8FB1C1A78B96864
:10031000FB68180000F004F8C046BD4604B080BD7C
:1003200080B588B000AFF860B960FB1D1A70FB683B
:10033000114A944663441B0AFB61FB690F4A9446C9
:1003400063441B02BB61BB691B68BA6892000F2142
:1003500091400A00D24313407B61FB1D1B780F22A2
:100360001A40BB689B009A407B691A43BB691A60BC
:10037000C046BD4608B080BD0000FCBF0002400082
:1003800080B586B000AFF860B9607A60BA681300D3
:100390005B009B187B61FB689B6807217A69914031
:1003A0000A00D24313403B617B6807221A407B69F5
:1003B0009A403B691A43FB689A60FB689B6901217C
:1003C000BA6891400A00D24313403B617B68DB0866
:1003D00001221A40BB689A403B691A43FB689A6144
:1003E000C046BD4606B080BD80B500AFC046BD4624
:1003F00080BD80B500AFC046BD4680BD80B500AFB2
:10040000C046BD4680BD80B500AF01231800BD4683
:1004100080BD80B582B000AF7860396000F0A6F989
:10042000030016221A6001235B421800BD4602B089
:1004300080BD80B582B000AF786001235A427B68EE
:1004400011001800FFF7E5FFC046FDE780B586B054
:1004500000AFF860B9607A6000237B610AE000E0D9
:1004600000BF0100BB685A1CBA60CAB21A707B692F
:1004700001337B617A697B689A42F0DB7B68180004
:10048000BD4606B080BD80B586B000AFF860B960EB
:100490007A6000237B6109E0BB685A1CBA601B7854
:1004A000180000E000BF7B6901337B617A697B68DB
:1004B0009A42F1DB7B681800BD4606B080BD80B56E
:1004C00082B000AF786001235B421800BD4602B0E5
:1004D00080BD80B582B000AF786039603B68802213
:1004E00092015A6000231800BD4602B080BD80B55D
:1004F00082B000AF786001231800BD4602B080BD15
:1005000080B584B000AFF860B9607A60002318004D
:10051000BD4604B080BD0EB480B583B000AF786036
:1005200001235B421800BD4603B080BC08BC03B089
:10053000184780B582B000AF786000F017F903006B
:100540000A221A6001235B421800BD4602B080BD3A
:1005500080B582B000AF786000F008F90300022295
:100560001A6001235B421800BD4602B080BD80B511
:1005700082B000AF786001235B421800BD4602B034
:1005800080BD80B582B000AF786039603B68802262
:1005900092015A6000231800BD4602B080BD80B5AC
:1005A00082B000AF7860396000F0E0F803001F22ED
:1005B0001A6001235B421800BD4602B080BD80B5C1
:1005C00000AF00F0D3F803000B221A6001235B4256
:1005D0001800BD4680BD80B584B000AFF860B9603A
:1005E0007A6000F0C3F803000C221A6001235B421A
:1005F0001800BD4604B080BD80B584B000AF7860FF
:10060000114B1B68002B02D10F4B104A1A600E4B86
:100610001B68FB600C4B1A687B68D2186B469A42C9
:1006200007D900F0A3F803000C221A6001235B42F3
:1006300006E0054B1A687B68D218034B1A60FB680A
:100640001800BD4604B080BD5C00002060000020A2
:1006500080B500AFC046BD4680BD80B500AFC04686
:10066000BD4680BD80B500AF054B1B681B041A0C4E
:10067000034B04490A431A60C046BD4680BDC046CC
:100680000CED00E00400FA0580B584B000AF78609E
:100690007B68192213407B60064B1B6819221340AC
:1006A000FB60044B7A681A60FB681800BD4604B012
:1006B00080BDC0465400034080B500AFC046BD4673
:1006C00080BD80B586B000AF1C4B1D4A1A601D4A24
:1006D0001D4BD31A9B10BB601B4B7B611B4B7B607C
:1006E00000233B6108E07B695A1C7A617A681278C2
:1006F0001A703B6901333B613A69BB689A42F2D395
:10070000134A144BD31A9B10BB60124BDAB27B69AD
:100710001A700023FB6007E07B695A1C7A61002293
:100720001A70FB680133FB60FA68BB689A42F3D326
:1007300000F022F8FFF7BCFCC046FDE7380003409C
:100740006588EDAC54000020000000201008000077
:10075000600000205400002080B500AFC046FDE7D7
:1007600080B500AFC046BD4680BDC046014B18688D
:100770007047C0460400002070B500260C4C0D4D9B
:10078000641BA410A64209D10026FFF795FF0A4C6E
:100790000A4D641BA410A64205D170BDB300EB58EE
:1007A00098470136EEE7B300EB5898470136F2E779
:1007B0000000000000000000000000000000000039
:1007C000010000000E00000000000000000000001A
:1007D00000000000010000000E000000000000000A
:1007E0000000000000000000010000000E000000FA
:1007F00000000000000000000000000001000000F8
:1008000002000000000000000000000000000000E6
:100810005800002008000020000000000000000038
:1008200068000000D0000000000000000000000090
:1008300000000000000000000000000000000000B8
:1008400000000000000000000000000000000000A8
:100850000000000000000000000000000000000098
:040860000000000094
:04000003000006C330
:00000001FF
