:1000000000400020830E0000190F0000210F0000A7
:1000100000000000000000000000000000000000E0
:10002000000000000000000000000000190F0000A8
:100030000000000000000000190F0000190F000070
:10004000190F0000190F0000190F0000190F000010
:10005000190F0000190F0000190F0000190F000000
:10006000190F0000190F0000190F0000190F0000F0
:10007000190F0000190F0000190F0000190F0000E0
:10008000190F0000190F0000190F0000190F0000D0
:10009000190F0000190F0000190F0000190F0000C0
:1000A000190F0000190F0000190F0000190F0000B0
:1000B0000000000000000000000000000000000040
:1000C00080B500AF002000F095FD00F08CF8234AC9
:1000D00023480023012100F019F9224A2248002375
:1000E000042100F013F9214B214A1900100000F0FF
:1000F0000DFA1F4B180000F0F8FB00F03DFE1C4B02
:100100000121180000F038FC194B0021180000F004
:1001100051FC03009AB2174B1A80164B1B881BB276
:10012000180000F0C9FC03009AB2134B1A80124B5E
:100130001B88124A934206D90B4B01220421180056
:1001400000F068F805E0084B00220421180000F0D8
:1001500061F80B4B180000F015F8D0E728110000EB
:1001600000020440EC1000000003044044120000B0
:1001700000003A400000002002000020DB050000E3
:1001800050C3000080B586B000AF786000237B616B
:1001900002E07B6901337B617A697B689A42F8DB14
:1001A00000233B6102E03B6901333B613A697B68B4
:1001B0009A42F8DB0023FB6002E0FB680133FB603E
:1001C000FA687B689A42F8DB0023BB6002E0BB68F8
:1001D0000133BB60BA687B689A42F8DBC046C04610
:1001E000BD4606B080BD80B500AF0521012000F0FE
:1001F0007FFC17220521012000F096FC052101203B
:1002000000F0BAFC05220121122000F0D3FCC04608
:10021000BD4680BD80B584B000AFF860B9607A603B
:100220007B68002B05D10122BB689A40FB685A64A9
:1002300004E00122BB689A40FB681A64C046BD46D0
:1002400004B080BD80B582B000AF786039607B6853
:100250005A683B68DA401300012213401800BD467B
:1002600002B080BD80B582B000AF786039600122F5
:100270003B689A407B681A64C046BD4602B080BDA8
:1002800080B582B000AF7860396001223B689A4047
:100290007B685A64C046BD4602B080BD80B582B05E
:1002A00000AF7860396001223B689A407B689A64AD
:1002B000C046BD4602B080BD80B584B000AF786056
:1002C00039607B680F4A944663441B0AFB60FB68F5
:1002D0000D4A944663441B02BB603B681A687B6806
:1002E0001A603B689A687B689A603B68DA687B684A
:1002F0009A613B681A69BB681A60C046BD4604B083
:1003000080BDC0460000FCBF0002400080B584B044
:1003100000AFF860B9607A601A00FB1C1A707B6845
:100320001A68B968FB681800FFF774FF7B685A68A1
:10033000B968FB68180000F051F8FB1C1A78B9681E
:10034000FB68180000F019F87B689A68B968FB68C8
:10035000180000F077F87B68DA68FB681100180075
:1003600000F08FF87B681A69FB681100180000F034
:10037000A1F8C046BD4604B080BD80B588B000AFCE
:10038000F860B960FB1D1A70FB68124A944663441A
:100390001B0AFB61FB69104A944663441B02BB6164
:1003A000BB691B68BA6892000F2191400A00D243D2
:1003B00013407B61FB1D1B780F221A40BB689B001A
:1003C0009A407B691A43BB691A60C046BD4608B0B3
:1003D00080BDC0460000FCBF0002400080B586B072
:1003E00000AFF860B9607A60BA6813005B009B18D0
:1003F0007B61FB689B6807217A6991400A00D243C0
:1004000013403B617B6807221A407B699A403B6935
:100410001A43FB689A60FB689B690121BA689140A6
:100420000A00D24313403B617B68DB0801221A407B
:10043000BB689A403B691A43FB689A61C046BD4657
:1004400006B080BD80B586B000AFF860B9607A6054
:10045000BB685B007B61FB68DB6803217A699140C4
:100460000A00D24313403B617B6803221A407B6938
:100470009A403B691A43FB68DA60C046BD4606B045
:1004800080BD80B584B000AF786039607B689B68C0
:10049000074A1340FB603B681A0680235B041A403E
:1004A000FB681A437B689A60C046BD4604B080BDB5
:1004B000FFFFFFFE80B584B000AF786039607B68D5
:1004C0009B68084A1340FB603B685A0680239B04E4
:1004D0001A40FB681A437B689A60C046BD4604B068
:1004E00080BDC046FFFFFFFD80B582B000AF7860E1
:1004F00039607B681B6901223B689A407B681A61FE
:100500007B681B69C046BD4602B080BD80B588B01F
:1005100000AF786039600023BB6100237B617B689A
:100520001A68C0239B051A407B681A607B681A68AA
:100530003B681B781B01702119403B685B78002BDE
:1005400001D0802300E0002319433B689B785802C8
:10055000E0231B01034019433B68DB7858038023E9
:100560009B01034019433B681B79002B02D0802379
:100570005B0300E0002319433B685B791806C02346
:100580009B04034019433B689B79002B02D08023D6
:100590001B0500E0002319433B68DB79002B02D0E8
:1005A0008023DB0500E000230B431A437B681A60BD
:1005B0007B685A6880231B031A407B685A607B68FB
:1005C0005A683B681B7A1900012319403B685B7A23
:1005D000002B01D0022300E0002319433B689B7AE3
:1005E000002B01D0042300E0002319433B68DB7A91
:1005F000002B01D0082300E0002319433B681B7B3C
:100600001B017020034019433B685B7B002B01D02A
:10061000802300E0002319433B689B7B5804802320
:100620009B02034019433B68DB7B002B02D08023F5
:100630001B0600E000230B431A437B685A603B68AB
:100640001B699B059A0D3B685B691B049A490B402B
:100650001A437B681A613B689B699B059A0D3B684E
:10066000DB691B0494490B401A437B685A613B6861
:100670001B6A1B041A0C3B685B6A1B041A437B68E9
:100680009A613B6828229B5C9A077B68DA613B6829
:10069000DB6A1B041A0C7B681A621F23FB180022FA
:1006A0001A70C5E01F217B181A783B680C32920043
:1006B000D3583B613B69002B00D1B3E07B181B781A
:1006C000072B2CD83B691B6877221A403B691B79A2
:1006D000002B02D080235B0000E000231A433B691B
:1006E0005B79590280239B000B401A433B699B793D
:1006F000002B02D08023DB0000E00023134319000D
:100700003B69DB791A03C0239B0113401F22BA18EF
:10071000127819437B6820329200D15028E03B695F
:100720001B6807221A403B691B79002B02D08023EB
:100730005B0000E000231A433B695B795902802388
:100740009B000B401A433B699B79002B02D080230E
:10075000DB0000E000231A433B69DB791903C02367
:100760009B010B401A4311007A68A0239B00D150D3
:100770003B691B7901225340DBB2002B0FD03B6851
:100780009B78072B0BD13B689B7A002B07D01F234C
:10079000FB181A78494B52004949D15207E01F23F0
:1007A000FB181A78454B013252000021D1521F220A
:1007B000BB181B78102B19D83B691B7A002B07D06C
:1007C000BB181B7801229A4013007A6913437B619E
:1007D0003B695B7A002B25D01F23FB181B78012275
:1007E0009A401300BA691343BB611BE03B691B7A53
:1007F000002B01D0402200E000223B695B7A002BF5
:1008000001D0202300E000231343FB60FA687B68DB
:100810001100180000F03FF9FA687B681100180019
:1008200000F028F91F217B181A787B1801321A7002
:100830001F23FB181B78102B00D833E7BA697B689D
:100840001100180000F040F8BA697B681100180028
:1008500000F0DDF87A697B681100180000F0F9F803
:100860007A697B681100180000F0E2F8154AD0237D
:100870009B000221D150134AC0239B000221D1507A
:10088000104B1A680F4B802109060A431A600D4964
:10089000C0239B0080225202CA500A4AD0239B00E8
:1008A000D3580849802252021A43D0239B00CA50D1
:1008B000C046BD4608B080BD0000FF030400002014
:1008C00000F8FFFF00003A4080B582B000AF7860CA
:1008D00039603B68FF22134019007A6888239B0027
:1008E000D150C046BD4602B080BD80B584B000AFD7
:1008F00078607B681B68802212061A437B681A6046
:100900000023FB6002E0FB680133FB60FB68044AE4
:100910009342F8DDC046C046BD4604B080BDC04627
:100920004FC3000080B500AF124AD0239B000221C4
:10093000D150104AC0239B000221D1500D4B1A68A0
:100940000C4B802109060A431A600A49C0239B0008
:1009500080225202CA50074AD0239B00D35805492F
:10096000802252021A43D0239B00CA50C046BD4683
:1009700080BDC04600003A4080B582B000AF7860CC
:100980000A00FB1C1A70FB1C1B78002B02D0012BE9
:1009900008D00BE07B685B68802252021A437B68B8
:1009A0005A6003E07B6801225A62C046C046BD46D9
:1009B00002B080BD80B584B000AF7860396000239C
:1009C000BB600023FB6006E07A6884239B00D35859
:1009D00001221340FB60FB68002BF5D07A6884236A
:1009E0009B00D35801221A4311007A6884239B008C
:1009F000D1507B683A6860329200D3581B041B0CBC
:100A0000BB60BB681BB21800BD4604B080BD80B59A
:100A100082B000AF786039603B68FF221340190054
:100A20007A688A239B00D150C046BD4602B080BD83
:100A300080B582B000AF786039603B68FF22134018
:100A400019007A688E239B00D150C046BD4602B083
:100A500080BD80B582B000AF786039603B68FF220E
:100A6000134019007A688C239B00D150C046BD46C4
:100A700002B080BD80B582B000AF786039603B685D
:100A8000F722134019007A6886239B00D150C04694
:100A9000BD4602B080BD80B582B000AF78603960DD
:100AA0003B68F722134019007A6884239B00D150D9
:100AB000C046BD4602B080BD80B584B000AF020024
:100AC000BB1D1A80BB1D00229B5E074A5343002BAF
:100AD00002DA064A94466344DB12FB60FB681BB2F1
:100AE0001800BD4604B080BD88130000FF07000059
:100AF00080B582B000AF02003960FB1D1A70FB1D8B
:100B00001B789B01FF221A403B683F210B401A4390
:100B1000044B8021C9050A431A60C046BD4602B095
:100B200080BDC0460000014080B584B000AFB96010
:100B30007A600F217B18021C1A707B187A181278C1
:100B40001A700A4ABB68C0339B009B58084A1A4077
:100B50007B681B0207490B4004491A43BB68C0333A
:100B60009B005A50C046BD4604B080BD0000014005
:100B7000FF0000FF00FFFF0080B582B000AF020061
:100B80003960FB1D1A70FB1D1B789B01FF221A4068
:100B90003B683F210B401A43044B05490A431A6046
:100BA000024B1B68C046BD4602B080BD000001403C
:100BB00000FF008080B582B000AF3A60FB1D021CD0
:100BC0001A70BB1D0A1C1A70BB1D1B789B01FF22EB
:100BD000134019003B683F221A400548FB1D1B7853
:100BE0000A4340339B001A50C046BD4602B080BD48
:100BF0000000014080B582B000AF0200FB1D1A70FA
:100C0000084B9B6A0C2293431900FB1D1B789B0029
:100C10000C221A40034B0A439A62C046BD4602B0FA
:100C200080BDC0460000034080B500AF034B80226A
:100C300012061A63C046BD4680BDC0460000034090
:100C400080B500AF0A4A0B4BD3589B001C221340BF
:100C500019000A005201521A93019B1ADB005B181B
:100C60009B01054A944663441800BD4680BDC046BA
:100C700000000340080F000000366E0180B586B00A
:100C800000AF7860FFF7DCFF02007B6893425FD023
:100C90007B68314A944663443049180000F044F9B7
:100CA0000300FB602E4A2F4B0021D1502E49E62332
:100CB000FF33FA688A18D3181B78DBB2284A190068
:100CC0002A4BD150264AF1231B010021D15026493D
:100CD000E6235B00FA688A18D3181B78DBB2204A37
:100CE0001900234BD150FB689B08FB6000237B61FC
:100CF00002E07B6901337B617B691E4A9342F8DD28
:100D0000FB68002B24D0164A164BD3580722934376
:100D10001A00FB68013B07210B4011491343114A9C
:100D20008B5000233B6102E03B6901333B613B692F
:100D3000104A9342F8DD0A4A0A4BD35807229343DC
:100D40001A00FB6807210B4005491343054A8B50E5
:100D5000C046BD4606B080BD00CA91FE40420F00AD
:100D600000000340080F000000F0FF0F0C0F000010
:100D7000180F00004FC3000080B500AF62B6C04638
:100D8000BD4680BD80B500AF72B6C046BD4680BDD1
:100D900080B582B000AF786039607B68002B1FDBC4
:100DA000114A7B689B08C0339B009B587A680321DB
:100DB0000A40D200FF2191400A00D2431A4011009C
:100DC0003B689B01FF221A407B6803200340DB0045
:100DD0009A4005487B689B080A43C0339B001A5021
:100DE000C046BD4602B080BD00E100E080B582B0E3
:100DF00000AF78607B68002B08DB7B681F22134004
:100E0000044901229A40C0235B00CA50C046BD4637
:100E100002B080BD00E100E080B582B000AF786034
:100E20007B68002B07DB7B681F221A40044B0121E3
:100E300091400A001A60C046BD4602B080BDC0465F
:100E400000E100E080B582B000AF78607B68002BE5
:100E50000CDB7B681F221340064901229A401300D5
:100E600080228B50BFF34F8FBFF36F8FC046BD46BC
:100E700002B080BD00E100E080B500AFC046BD46D5
:100E800080BD80B586B000AF1C4B1D4A1A601D4A5C
:100E90001D4BD31A9B107B601B4B7B611B4B3B6133
:100EA0000023FB600AE03A69131D3B617B69191D51
:100EB000796112681A60FB680133FB60FA687B682D
:100EC0009A42F0D3124A134BD31A9B107B60114BFA
:100ED0007B610023BB6007E07B691A1D7A610022F9
:100EE0001A60BB680133BB60BA687B689A42F3D36F
:100EF00000F0A6F8FFF7E4F8C046FDE7380003402D
:100F00006588EDAC0000002000000020C012000049
:100F1000280000200000002080B500AFC046FDE79B
:100F200080B500AFC046FDE7002243088B4274D372
:100F300003098B425FD3030A8B4244D3030B8B42DA
:100F400028D3030C8B420DD3FF22090212BA030CE3
:100F50008B4202D31212090265D0030B8B4219D3C4
:100F600000E0090AC30B8B4201D3CB03C01A5241E4
:100F7000830B8B4201D38B03C01A5241430B8B422C
:100F800001D34B03C01A5241030B8B4201D30B0315
:100F9000C01A5241C30A8B4201D3CB02C01A52413C
:100FA000830A8B4201D38B02C01A5241430A8B42FF
:100FB00001D34B02C01A5241030A8B4201D30B02E8
:100FC000C01A5241CDD2C3098B4201D3CB01C01A02
:100FD000524183098B4201D38B01C01A524143090C
:100FE0008B4201D34B01C01A524103098B4201D3FA
:100FF0000B01C01A5241C3088B4201D3CB00C01A67
:10100000524183088B4201D38B00C01A52414308DE
:101010008B4201D34B00C01A5241411A00D2014603
:10102000524110467047FFE701B5002000F006F876
:1010300002BDC0460029F7D076E770477047C0462A
:1010400070B500260C4C0D4D641BA410A64209D1AE
:101050000026FFF711FF0A4C0A4D641BA410A6429C
:1010600005D170BDB300EB5898470136EEE7B300E9
:10107000EB5898470136F2E700000000000000003E
:101080000000000000000000010000000600000059
:10109000000000000000000000000000010000004F
:1010A000060000000000000000000000000000003A
:1010B0000100000006000000000000000000000029
:1010C0000000000001000000060000000000000019
:1010D000000000000000000001000000020000000D
:1010E00002000000000000000000000001000000FD
:1010F00006000000000000000000000000000000EA
:1011000001000000060000000000000000000000D8
:1011100000000000010000000600000000000000C8
:1011200000000000000000000100000009000000B5
:10113000000000000000000000000000008000002F
:10114000000000000000000000000000020000009D
:10115000004000000040000000000000000000000F
:101160000300000000000000030000000000000079
:101170000300000000000000030000000000000069
:1011800003000000010000000080000000000000DB
:10119000000000000000000002000000004000000D
:1011A00000400000000000000000000003000000FC
:1011B0000000000003000000000000000300000029
:1011C0000000000003000000000000000300000019
:1011D000010000000400000000000000000000000A
:1011E000000000000000000010270000881300002D
:1011F0000000000088130000E80300000000000069
:1012000000000000000000000000000002000000DC
:1012100003000000000000000300000000000000C8
:1012200003000000000000000300000000000000B8
:1012300003000000010000000100000000000000A9
:101240000000000007000001000100000100000193
:10125000070100000D000000020000000200000075
:10126000020000000000000000000000000000007C
:101270000100000038120000000000000000000023
:10128000000000000000000000000000000000005E
:10129000000000000000000000000000000000004E
:1012A000000000000000000000000000000000003E
:1012B0000000000000000000000000008813000093
:0400000300000E8368
:00000001FF
