:10000000004000205F050000F5050000FD05000030
:1000100000000000000000000000000000000000E0
:10002000000000000000000000000000F5050000D6
:100030000000000000000000F5050000F5050000CC
:10004000F5050000F5050000F50500002F01000092
:10005000F5050000F5050000F5050000F5050000B8
:10006000F5050000F5050000F5050000F5050000A8
:10007000F5050000F5050000F5050000F505000098
:10008000F5050000F5050000F5050000F505000088
:10009000F5050000F5050000F5050000F505000078
:1000A000F5050000F5050000F5050000F505000068
:1000B0000000000000000000000000000000000040
:1000C00080B500AF094A0A480023072100F0C8F8AC
:1000D0000121032000F0CAF9032000F0F5F9032004
:1000E00000F008FA00F0BCF9C046FDE74C0600003D
:1000F0000003044080B584B000AF78600023FB604B
:1001000002E0FB680133FB60FA687B689A42F8DB27
:100110000023BB6002E0BB680133BB60BA687B6848
:100120009A42F8DBC046C046BD4604B080BD80B5EB
:1001300000AF0B4B0721180000F080F9094B1800A5
:10014000FFF7D8FF064B0721180000F025F8031E23
:1001500003D1044B1800FFF7CDFFC046BD4680BD5C
:1001600000030440204E000080B584B000AFF8606A
:10017000B9607A607B68002B05D10122BB689A4088
:10018000FB685A6404E00122BB689A40FB681A6469
:10019000C046BD4604B080BD80B582B000AF786077
:1001A00039607B685A683B68DA40130001221340CB
:1001B0001800BD4602B080BD80B582B000AF786047
:1001C000396001223B689A407B681A64C046BD468C
:1001D00002B080BD80B582B000AF78603960012286
:1001E0003B689A407B685A64C046BD4602B080BDF9
:1001F00080B582B000AF7860396001223B689A40D8
:100200007B689A64C046BD4602B080BD80B584B0AC
:1002100000AF786039607B680F4A944663441B0ADC
:10022000FB60FB680D4A944663441B02BB603B685D
:100230001A687B681A603B689A687B689A603B68BA
:10024000DA687B689A613B681A69BB681A60C046C5
:10025000BD4604B080BDC0460000FCBF00024000A7
:1002600080B584B000AFF860B9607A601A00FB1CFA
:100270001A707B681A68B968FB681800FFF774FF8A
:100280007B685A68B968FB68180000F051F8FB1CDD
:100290001A78B968FB68180000F019F87B689A684A
:1002A000B968FB68180000F077F87B68DA68FB68CB
:1002B0001100180000F08FF87B681A69FB681100C4
:1002C000180000F0A1F8C046BD4604B080BD80B55E
:1002D00088B000AFF860B960FB1D1A70FB68124A65
:1002E000944663441B0AFB61FB69104A94466344CD
:1002F0001B02BB61BB691B68BA6892000F21914069
:100300000A00D24313407B61FB1D1B780F221A4069
:10031000BB689B009A407B691A43BB691A60C04660
:10032000BD4608B080BDC0460000FCBF00024000D2
:1003300080B586B000AFF860B9607A60BA68130023
:100340005B009B187B61FB689B6807217A69914081
:100350000A00D24313403B617B6807221A407B6945
:100360009A403B691A43FB689A60FB689B690121CC
:10037000BA6891400A00D24313403B617B68DB08B6
:1003800001221A40BB689A403B691A43FB689A6194
:10039000C046BD4606B080BD80B586B000AFF860EF
:1003A000B9607A60BB685B007B61FB68DB68032136
:1003B0007A6991400A00D24313403B617B68032273
:1003C0001A407B699A403B691A43FB68DA60C04671
:1003D000BD4606B080BD80B584B000AF786039609E
:1003E0007B689B68074A1340FB603B681A068023C2
:1003F0005B041A40FB681A437B689A60C046BD469E
:1004000004B080BDFFFFFFFE80B584B000AF786010
:1004100039607B689B68084A1340FB603B685A065A
:1004200080239B041A40FB681A437B689A60C0468D
:10043000BD4604B080BDC046FFFFFFFD80B582B061
:1004400000AF786039607B681B6901223B689A4085
:100450007B681A617B681B69C046BD4602B080BDDF
:1004600080B500AF62B6C046BD4680BD80B582B0E3
:1004700000AF786039607B68002B1FDB114A7B6816
:100480009B08C0339B009B587A6803210A40D20026
:10049000FF2191400A00D2431A4011003B689B01A2
:1004A000FF221A407B6803200340DB009A40054886
:1004B0007B689B080A43C0339B001A50C046BD4668
:1004C00002B080BD00E100E080B582B000AF78608E
:1004D0007B68002B08DB7B681F2213400449012244
:1004E0009A40C0235B00CA50C046BD4602B080BDE2
:1004F00000E100E080B582B000AF78607B68002B3F
:1005000007DB7B681F221A40044B012191400A003F
:100510001A60C046BD4602B080BDC04600E100E0A2
:1005200080B582B000AF78607B68002B0CDB7B6805
:100530001F221340064901229A40130080228B504B
:10054000BFF34F8FBFF36F8FC046BD4602B080BD73
:1005500000E100E080B500AFC046BD4680BD80B57B
:1005600086B000AF1C4B1D4A1A601D4A1D4BD31AA2
:100570009B107B601B4B7B611B4B3B610023FB6033
:100580000AE03A69131D3B617B69191D79611268A4
:100590001A60FB680133FB60FA687B689A42F0D30B
:1005A000124A134BD31A9B107B60114B7B610023C3
:1005B000BB6007E07B691A1D7A6100221A60BB6884
:1005C0000133BB60BA687B689A42F3D300F01AF833
:1005D000FFF776FDC046FDE7380003406588EDACC7
:1005E0000000002000000020600600000000002045
:1005F0000000002080B500AFC046FDE780B500AF29
:10060000C046FDE770B500260C4C0D4D641BA410D0
:10061000A64209D10026FFF79DFF0A4C0A4D641B34
:10062000A410A64205D170BDB300EB58984701361F
:10063000EEE7B300EB5898470136F2E70000000000
:1006400000000000000000000000000001000000A9
:100650000200000002000000000000000000000096
:040000030000055F95
:00000001FF
